{
  "contractName": "KitBase",
  "abi": [
    {
      "constant": true,
      "inputs": [],
      "name": "ens",
      "outputs": [
        {
          "name": "",
          "type": "address"
        }
      ],
      "payable": false,
      "stateMutability": "view",
      "type": "function"
    },
    {
      "constant": true,
      "inputs": [],
      "name": "fac",
      "outputs": [
        {
          "name": "",
          "type": "address"
        }
      ],
      "payable": false,
      "stateMutability": "view",
      "type": "function"
    },
    {
      "inputs": [
        {
          "name": "_fac",
          "type": "address"
        },
        {
          "name": "_ens",
          "type": "address"
        }
      ],
      "payable": false,
      "stateMutability": "nonpayable",
      "type": "constructor"
    },
    {
      "anonymous": false,
      "inputs": [
        {
          "indexed": false,
          "name": "dao",
          "type": "address"
        }
      ],
      "name": "DeployInstance",
      "type": "event"
    },
    {
      "anonymous": false,
      "inputs": [
        {
          "indexed": false,
          "name": "appProxy",
          "type": "address"
        },
        {
          "indexed": false,
          "name": "appId",
          "type": "bytes32"
        }
      ],
      "name": "InstalledApp",
      "type": "event"
    },
    {
      "constant": true,
      "inputs": [
        {
          "name": "appId",
          "type": "bytes32"
        }
      ],
      "name": "latestVersionAppBase",
      "outputs": [
        {
          "name": "base",
          "type": "address"
        }
      ],
      "payable": false,
      "stateMutability": "view",
      "type": "function"
    }
  ],
  "bytecode": "0x608060405234801561001057600080fd5b50604051604080610aaf83398101806040528101908080519060200190929190805190602001909291905050506000816000806101000a81548173ffffffffffffffffffffffffffffffffffffffff021916908373ffffffffffffffffffffffffffffffffffffffff160217905550600073ffffffffffffffffffffffffffffffffffffffff168373ffffffffffffffffffffffffffffffffffffffff1614156101fe576101016040805190810160405280600881526020017f626172652d6b6974000000000000000000000000000000000000000000000000815250610248640100000000026401000000009004565b905061011b81610370640100000000026401000000009004565b73ffffffffffffffffffffffffffffffffffffffff1663c3b314726040518163ffffffff167c0100000000000000000000000000000000000000000000000000000000028152600401602060405180830381600087803b15801561017e57600080fd5b505af1158015610192573d6000803e3d6000fd5b505050506040513d60208110156101a857600080fd5b8101908080519060200190929190505050600160006101000a81548173ffffffffffffffffffffffffffffffffffffffff021916908373ffffffffffffffffffffffffffffffffffffffff160217905550610240565b82600160006101000a81548173ffffffffffffffffffffffffffffffffffffffff021916908373ffffffffffffffffffffffffffffffffffffffff1602179055505b50505061060f565b60007f9065c3e7f7b7ef1ef4e53d2d0b8e0cef02874ab020c1ece79d5f0d3d0111c0ba600102826040518082805190602001908083835b6020831015156102a4578051825260208201915060208101905060208303925061027f565b6001836020036101000a03801982511681845116808217855250505050505090500191505060405180910390206040516020018083600019166000191681526020018260001916600019168152602001925050506040516020818303038152906040526040518082805190602001908083835b60208310151561033c5780518252602082019150602081019050602083039250610317565b6001836020036101000a03801982511681845116808217855250505050505090500191505060405180910390209050919050565b6000806000809054906101000a900473ffffffffffffffffffffffffffffffffffffffff1673ffffffffffffffffffffffffffffffffffffffff16630178b8bf846040518263ffffffff167c0100000000000000000000000000000000000000000000000000000000028152600401808260001916600019168152602001915050602060405180830381600087803b15801561040b57600080fd5b505af115801561041f573d6000803e3d6000fd5b505050506040513d602081101561043557600080fd5b810190808051906020019092919050505073ffffffffffffffffffffffffffffffffffffffff16633b3b57de846040518263ffffffff167c0100000000000000000000000000000000000000000000000000000000028152600401808260001916600019168152602001915050602060405180830381600087803b1580156104bc57600080fd5b505af11580156104d0573d6000803e3d6000fd5b505050506040513d60208110156104e657600080fd5b810190808051906020019092919050505090508073ffffffffffffffffffffffffffffffffffffffff1663c36af4606040518163ffffffff167c0100000000000000000000000000000000000000000000000000000000028152600401600060405180830381600087803b15801561055d57600080fd5b505af1158015610571573d6000803e3d6000fd5b505050506040513d6000823e3d601f19601f8201168201806040525060a081101561059b57600080fd5b810190809190826060018051906020019092919080516401000000008111156105c357600080fd5b828101905060208101848111156105d957600080fd5b81518560018202830111640100000000821117156105f657600080fd5b5050929190505050909150508092505081915050919050565b6104918061061e6000396000f300608060405260043610610057576000357c0100000000000000000000000000000000000000000000000000000000900463ffffffff1680633f15457f1461005c578063c3b31472146100b3578063c6d2c7171461010a575b600080fd5b34801561006857600080fd5b5061007161017b565b604051808273ffffffffffffffffffffffffffffffffffffffff1673ffffffffffffffffffffffffffffffffffffffff16815260200191505060405180910390f35b3480156100bf57600080fd5b506100c86101a0565b604051808273ffffffffffffffffffffffffffffffffffffffff1673ffffffffffffffffffffffffffffffffffffffff16815260200191505060405180910390f35b34801561011657600080fd5b5061013960048036038101908080356000191690602001909291905050506101c6565b604051808273ffffffffffffffffffffffffffffffffffffffff1673ffffffffffffffffffffffffffffffffffffffff16815260200191505060405180910390f35b6000809054906101000a900473ffffffffffffffffffffffffffffffffffffffff1681565b600160009054906101000a900473ffffffffffffffffffffffffffffffffffffffff1681565b6000806000809054906101000a900473ffffffffffffffffffffffffffffffffffffffff1673ffffffffffffffffffffffffffffffffffffffff16630178b8bf846040518263ffffffff167c0100000000000000000000000000000000000000000000000000000000028152600401808260001916600019168152602001915050602060405180830381600087803b15801561026157600080fd5b505af1158015610275573d6000803e3d6000fd5b505050506040513d602081101561028b57600080fd5b810190808051906020019092919050505073ffffffffffffffffffffffffffffffffffffffff16633b3b57de846040518263ffffffff167c0100000000000000000000000000000000000000000000000000000000028152600401808260001916600019168152602001915050602060405180830381600087803b15801561031257600080fd5b505af1158015610326573d6000803e3d6000fd5b505050506040513d602081101561033c57600080fd5b810190808051906020019092919050505090508073ffffffffffffffffffffffffffffffffffffffff1663c36af4606040518163ffffffff167c0100000000000000000000000000000000000000000000000000000000028152600401600060405180830381600087803b1580156103b357600080fd5b505af11580156103c7573d6000803e3d6000fd5b505050506040513d6000823e3d601f19601f8201168201806040525060a08110156103f157600080fd5b8101908091908260600180519060200190929190805164010000000081111561041957600080fd5b8281019050602081018481111561042f57600080fd5b815185600182028301116401000000008211171561044c57600080fd5b50509291905050509091505080925050819150509190505600a165627a7a72305820616a5c4b1e35879af73282582a59f2433954cb0729942c0be45cfc04a02234680029",
  "source": "pragma solidity 0.4.24;\n\nimport \"@aragon/os/contracts/factory/DAOFactory.sol\";\nimport \"@aragon/os/contracts/apm/Repo.sol\";\nimport \"@aragon/os/contracts/lib/ens/ENS.sol\";\nimport \"@aragon/os/contracts/lib/ens/PublicResolver.sol\";\nimport \"@aragon/os/contracts/evmscript/IEVMScriptRegistry.sol\"; // needed for EVMSCRIPT_REGISTRY_APP_ID\nimport \"../node_modules/@aragon/os/contracts/apm/APMNamehash.sol\";\n\n\ncontract KitBase is APMNamehash {\n    ENS public ens;\n    DAOFactory public fac;\n\n    event DeployInstance(address dao);\n    event InstalledApp(address appProxy, bytes32 appId);\n\n    constructor (DAOFactory _fac, ENS _ens) public {\n        ens = _ens;\n\n        // If no factory is passed, get it from on-chain bare-kit\n        if (address(_fac) == address(0)) {\n            bytes32 bareKit = apmNamehash(\"bare-kit\");\n            fac = KitBase(latestVersionAppBase(bareKit)).fac();\n        } else {\n            fac = _fac;\n        }\n    }\n\n    function latestVersionAppBase(bytes32 appId) public view returns (address base) {\n        Repo repo = Repo(PublicResolver(ens.resolver(appId)).addr(appId));\n        (,base,) = repo.getLatest();\n\n        return base;\n    }\n\n    function cleanupDAOPermissions(Kernel dao, ACL acl, address root) internal {\n        // Kernel permission clean up\n        cleanupPermission(acl, root, dao, dao.APP_MANAGER_ROLE());\n\n        // ACL permission clean up\n        cleanupPermission(acl, root, acl, acl.CREATE_PERMISSIONS_ROLE());\n    }\n\n    function cleanupPermission(ACL acl, address root, address app, bytes32 permission) internal {\n        acl.grantPermission(root, app, permission);\n        acl.revokePermission(this, app, permission);\n        acl.setPermissionManager(root, app, permission);\n    }\n}",
  "sourcePath": "/home/haythem96/Projects/Blockchain/Projects/Coinsence/coinsence-aragon/Community/space/contracts/KitBase.sol",
  "compiler": {
    "name": "solc",
    "version": "0.4.24+commit.e67f0147.Emscripten.clang"
  },
  "schemaVersion": "2.0.1",
  "updatedAt": "2019-02-21T09:49:07.511Z"
}